{
  "_format": "hh-sol-artifact-1",
  "contractName": "ReputationRegistry",
  "sourceName": "contracts/ReputationRegistry.sol",
  "abi": [
    {
      "inputs": [],
      "stateMutability": "nonpayable",
      "type": "constructor"
    },
    {
      "inputs": [],
      "name": "AlreadyActiveNFT",
      "type": "error"
    },
    {
      "inputs": [
        {
          "internalType": "address",
          "name": "owner",
          "type": "address"
        }
      ],
      "name": "OwnableInvalidOwner",
      "type": "error"
    },
    {
      "inputs": [
        {
          "internalType": "address",
          "name": "account",
          "type": "address"
        }
      ],
      "name": "OwnableUnauthorizedAccount",
      "type": "error"
    },
    {
      "inputs": [],
      "name": "Unauthorized",
      "type": "error"
    },
    {
      "anonymous": false,
      "inputs": [
        {
          "indexed": true,
          "internalType": "address",
          "name": "user",
          "type": "address"
        },
        {
          "indexed": false,
          "internalType": "uint256",
          "name": "expiryTimestamp",
          "type": "uint256"
        }
      ],
      "name": "NFTMinted",
      "type": "event"
    },
    {
      "anonymous": false,
      "inputs": [
        {
          "indexed": true,
          "internalType": "address",
          "name": "previousOwner",
          "type": "address"
        },
        {
          "indexed": true,
          "internalType": "address",
          "name": "newOwner",
          "type": "address"
        }
      ],
      "name": "OwnershipTransferred",
      "type": "event"
    },
    {
      "anonymous": false,
      "inputs": [
        {
          "indexed": true,
          "internalType": "address",
          "name": "user",
          "type": "address"
        },
        {
          "indexed": false,
          "internalType": "uint256",
          "name": "score",
          "type": "uint256"
        }
      ],
      "name": "ReputationSet",
      "type": "event"
    },
    {
      "anonymous": false,
      "inputs": [
        {
          "indexed": true,
          "internalType": "address",
          "name": "user",
          "type": "address"
        }
      ],
      "name": "UserVerified",
      "type": "event"
    },
    {
      "inputs": [],
      "name": "ELIGIBILITY_THRESHOLD",
      "outputs": [
        {
          "internalType": "uint256",
          "name": "",
          "type": "uint256"
        }
      ],
      "stateMutability": "view",
      "type": "function"
    },
    {
      "inputs": [],
      "name": "NFT_VALIDITY_DAYS",
      "outputs": [
        {
          "internalType": "uint256",
          "name": "",
          "type": "uint256"
        }
      ],
      "stateMutability": "view",
      "type": "function"
    },
    {
      "inputs": [
        {
          "internalType": "address",
          "name": "user",
          "type": "address"
        }
      ],
      "name": "checkEligibility",
      "outputs": [
        {
          "internalType": "bool",
          "name": "eligible",
          "type": "bool"
        }
      ],
      "stateMutability": "view",
      "type": "function"
    },
    {
      "inputs": [
        {
          "internalType": "address",
          "name": "user",
          "type": "address"
        }
      ],
      "name": "hasActiveNFT",
      "outputs": [
        {
          "internalType": "bool",
          "name": "",
          "type": "bool"
        }
      ],
      "stateMutability": "view",
      "type": "function"
    },
    {
      "inputs": [
        {
          "internalType": "address",
          "name": "",
          "type": "address"
        }
      ],
      "name": "isVerified",
      "outputs": [
        {
          "internalType": "bool",
          "name": "",
          "type": "bool"
        }
      ],
      "stateMutability": "view",
      "type": "function"
    },
    {
      "inputs": [
        {
          "internalType": "address",
          "name": "user",
          "type": "address"
        }
      ],
      "name": "mintTimeBoundNFT",
      "outputs": [],
      "stateMutability": "nonpayable",
      "type": "function"
    },
    {
      "inputs": [
        {
          "internalType": "address",
          "name": "",
          "type": "address"
        }
      ],
      "name": "nftExpiry",
      "outputs": [
        {
          "internalType": "uint256",
          "name": "",
          "type": "uint256"
        }
      ],
      "stateMutability": "view",
      "type": "function"
    },
    {
      "inputs": [],
      "name": "owner",
      "outputs": [
        {
          "internalType": "address",
          "name": "",
          "type": "address"
        }
      ],
      "stateMutability": "view",
      "type": "function"
    },
    {
      "inputs": [],
      "name": "renounceOwnership",
      "outputs": [],
      "stateMutability": "nonpayable",
      "type": "function"
    },
    {
      "inputs": [
        {
          "internalType": "address",
          "name": "",
          "type": "address"
        }
      ],
      "name": "reputationScore",
      "outputs": [
        {
          "internalType": "uint256",
          "name": "",
          "type": "uint256"
        }
      ],
      "stateMutability": "view",
      "type": "function"
    },
    {
      "inputs": [
        {
          "internalType": "address",
          "name": "user",
          "type": "address"
        },
        {
          "internalType": "uint256",
          "name": "score",
          "type": "uint256"
        }
      ],
      "name": "setReputation",
      "outputs": [],
      "stateMutability": "nonpayable",
      "type": "function"
    },
    {
      "inputs": [
        {
          "internalType": "address",
          "name": "newOwner",
          "type": "address"
        }
      ],
      "name": "transferOwnership",
      "outputs": [],
      "stateMutability": "nonpayable",
      "type": "function"
    },
    {
      "inputs": [
        {
          "internalType": "address",
          "name": "user",
          "type": "address"
        }
      ],
      "name": "verifyUser",
      "outputs": [],
      "stateMutability": "nonpayable",
      "type": "function"
    }
  ],
  "bytecode": "0x608060405234801561001057600080fd5b50338061003757604051631e4fbdf760e01b81526000600482015260240160405180910390fd5b61004081610046565b50610096565b600080546001600160a01b038381166001600160a01b0319831681178455604051919092169283917f8be0079c531659141344cd1fd0a4f28419497f9722a3daafe3b4186f6b6457e09190a35050565b6105df806100a56000396000f3fe608060405234801561001057600080fd5b50600436106100cf5760003560e01c80638b0f90671161008c578063b120c16a11610066578063b120c16a146101c8578063b9209e33146101db578063f2fde38b146101fe578063f8162dbc1461021157600080fd5b80638b0f9067146101925780638da5cb5b1461019a578063aebd3913146101b557600080fd5b80631c8e38ff146100d45780634d8131201461011457806350d061cb146101295780636219547c14610157578063715018a6146101775780637723bafb1461017f575b600080fd5b6100ff6100e236600461051d565b6001600160a01b0316600090815260036020526040902054421090565b60405190151581526020015b60405180910390f35b61012761012236600461051d565b610219565b005b61014961013736600461051d565b60016020526000908152604090205481565b60405190815260200161010b565b61014961016536600461051d565b60036020526000908152604090205481565b61012761028f565b6100ff61018d36600461051d565b6102a3565b610149601e81565b6000546040516001600160a01b03909116815260200161010b565b6101276101c336600461051d565b6102ea565b6101276101d636600461053f565b6103be565b6100ff6101e936600461051d565b60026020526000908152604090205460ff1681565b61012761020c36600461051d565b610441565b610149604b81565b6000546001600160a01b03163314610243576040516282b42960e81b815260040160405180910390fd5b6001600160a01b038116600081815260026020526040808220805460ff19166001179055517fa6625d2d26e786e2f473111bea4b2fcdbbf1863d883a2359989ce3a103d2972a9190a250565b610297610484565b6102a160006104b1565b565b6001600160a01b03811660009081526002602052604081205460ff1680156102e457506001600160a01b038216600090815260016020526040902054604b11155b92915050565b6000546001600160a01b03163314610314576040516282b42960e81b815260040160405180910390fd5b6001600160a01b03811660009081526003602052604090205442101561034d5760405163f308c9e960e01b815260040160405180910390fd5b61035b601e6201518061057f565b6103659042610596565b6001600160a01b038216600081815260036020526040908190208390555190917f4cc0a9c4a99ddc700de1af2c9f916a7cbfdb71f14801ccff94061ad1ef8a8040916103b391815260200190565b60405180910390a250565b6000546001600160a01b031633146103e8576040516282b42960e81b815260040160405180910390fd5b6001600160a01b03821660008181526001602052604090819020839055517f64e563fb1e4ddd0566f8be787f8b3a517b7ed8187d91f8d6a2f8bbe4314822a4906104359084815260200190565b60405180910390a25050565b610449610484565b6001600160a01b03811661047857604051631e4fbdf760e01b8152600060048201526024015b60405180910390fd5b610481816104b1565b50565b6000546001600160a01b031633146102a15760405163118cdaa760e01b815233600482015260240161046f565b600080546001600160a01b038381166001600160a01b0319831681178455604051919092169283917f8be0079c531659141344cd1fd0a4f28419497f9722a3daafe3b4186f6b6457e09190a35050565b80356001600160a01b038116811461051857600080fd5b919050565b60006020828403121561052f57600080fd5b61053882610501565b9392505050565b6000806040838503121561055257600080fd5b61055b83610501565b946020939093013593505050565b634e487b7160e01b600052601160045260246000fd5b80820281158282048414176102e4576102e4610569565b808201808211156102e4576102e461056956fea2646970667358221220b90ce90ebc6ccd4dbdb54cfbaf88e2690acd4700de5e046395008f479266921964736f6c63430008140033",
  "linkReferences": {},
  "deployedLinkReferences": {}
}